:020000040800F2
:10000000780600202905000831050008330500089E
:100010003505000837050008390500080000000014
:100020000000000000000000000000003B05000888
:100030003D050008000000003F0500089101000890
:100040004305000843050008430500084305000870
:100050004305000843050008430500084305000860
:100060004305000843050008430500084305000850
:100070004305000843050008430500084305000840
:100080004305000843050008430500084305000830
:100090004305000843050008430500084305000820
:1000A0004305000843050008430500084305000810
:1000B0004305000843050008430500084305000800
:1000C00043050008430500084305000843050008F0
:1000D0004305000895010008930100084305000846
:1000E00043050008430500084305000800F002F836
:1000F00000F03AF80AA090E8000C82448344AAF188
:100100000107DA4501D100F02FF8AFF2090EBAE885
:100110000F0013F0010F18BFFB1A43F0010318473B
:10012000C4040000E4040000103A24BF78C878C179
:10013000FAD8520724BF30C830C144BF04680C60ED
:10014000704700000023002400250026103A28BF35
:1001500078C1FBD8520728BF30C148BF0B60704739
:100160001FB51FBD10B510BD00F001FA1146FFF715
:10017000F7FF00F008F800F01FFA03B4FFF7F2FFF2
:1001800003BC00F027FA10B500F006F8002010BDFF
:10019000704770477047000010B56FF0040000F022
:1001A000B4F82E4800682E49B0FBF1F02D490870D4
:1001B0000846007800EB4001C1EBC0104FF6FF711C
:1001C00001EAC0002849088010BD0146254A12787E
:1001D0004A434FF0E0235A6100229A611A4612699D
:1001E00042F001021A6100BF4FF0E022106900F0F6
:1001F00001021AB100F48032002AF5D04FF0E0225B
:10020000126922F001024FF0E0231A6100229A6184
:1002100070470146144A12884A434FF0E0235A615E
:1002200000229A611A46126942F001021A6100BF67
:100230004FF0E022106900F001021AB100F48032A0
:10024000002AF5D04FF0E022126922F001024FF0AF
:10025000E0231A6100229A61704700000400002028
:1002600000127A0000000020020000203149014302
:10027000314A1160704770B5002100230F22C47805
:1002800004B32D4C246804F4E064C4F5E064210A4E
:10029000C1F10403CA40447804FA03F1847814409D
:1002A00021430901254C0678A155047804F01F0567
:1002B0000124AC4005786D11AD0005F1E025C5F8CD
:1002C000004109E0047804F01F050124AC401C4DF6
:1002D0000678761145F8264070BD1A4A0A40024356
:1002E000154B1B1F1A60704739B1134A121D126853
:1002F0000243114B1B1D1A6006E00F4A121D1268C3
:1003000082430D4B1B1D1A607047042808D14FF023
:10031000E021096941F004014FF0E022116107E09A
:100320004FF0E021096921F004014FF0E022116152
:10033000704700000000FA050CED00E000E400E06A
:1003400080E100E080FFFF1F0CB5002001900090CD
:100350006C48006840F480306A49086000BF694812
:10036000006800F4003000900198401C0190009853
:1003700018B90198B0F5A06FF1D16248006800F497
:10038000003010B10120009001E0002000900098A2
:10039000012843D15C48006840F010005A490860C9
:1003A0000846006820F0030008600846006840F036
:1003B0000200086053484068524948600846406857
:1003C00048600846406840F48060486008464068DD
:1003D00020F47C1048600846406840F4E81048600B
:1003E0000846006840F08070086000BF454800681B
:1003F00000F000700028F9D04248406820F0030067
:10040000404948600846406840F00200486000BF2C
:100410003C48406800F00C000828F9D10CBD10B52C
:10042000FFF792FF10BD10B53648006840F001009C
:1004300034490860084640683449084031494860FA
:1004400008460068324908402E490860084600689E
:1004500020F4802008600846406820F4FE004860D0
:100460004FF41F008860FFF7DAFF4FF00060294962
:10047000086010BD10B5002100200022214B5B68F0
:1004800003F00C0121B1042906D0082928D107E086
:10049000214B224C236027E01F4B204C236023E09C
:1004A000184B5B6803F47010164B5B6803F48032E2
:1004B000022303EB904022B9194B4343174C2360AE
:1004C0000DE0104B5B6803F4003323B1144B43433E
:1004D000124C236003E0104B4343104C236003E0B5
:1004E0000D4B0E4C236000BF00BF064B5B68C3F38F
:1004F00003130C4CE15C094B1B68CB40074C236099
:1005000010BD000000100240002002400000FFF873
:10051000FFFFF6FE08ED00E000127A000400002064
:1005200000093D00080000200948804709480047AD
:10053000FEE7FEE7FEE7FEE7FEE7FEE7FEE7FEE793
:10054000FEE7FEE704480549054A064B70470000F0
:1005500027040008ED00000878000020780600203D
:100560007802002078020020704770477047754677
:1005700000F02CF8AE4605006946534620F007000F
:10058000854618B020B5FFF7DDFFBDE820404FF0ED
:1005900000064FF000074FF000084FF0000B21F06D
:1005A0000701AC46ACE8C009ACE8C009ACE8C0093A
:1005B000ACE8C0098D46704710B50446AFF3008023
:1005C0002046BDE81040FFF7D8BD00000048704746
:1005D0001800002001491820ABBEFEE726000200EB
:1005E000704700000406000800000020180000000A
:1005F000280100081C060008180000206006000002
:10060000440100080000000000A24A0400000000AD
:0C061000000000000102030406070809B6
:04000005080000ED02
:00000001FF
